:020000040000FA
:20000000005000202110000019100000FD0F00001D1000001D1000001D1000000000000083
:200020000000000000000000000000001D1000001D100000000000001D1000001D1000000C
:20004000813100001D100000493A00001D10000061280000992D00001D1000001D10000068
:200060001D1000009D3A00001D1000001D1000001D1000001D1000001D1000001D1000006E
:200080001D1000001D1000001D1000001D1000001D1000001D1000001D1000001D100000F8
:2000A0001D1000001D1000001D1000001D1000001D1000001D1000001D1000001D100000D8
:2000C0001D1000004D4A0000294B1B689B0702D44FF000407047F0B5452183B0002002F067
:2000E00025FA022201200DF1060101F0B9F838B901A8022101F0D6F84FF0004003B0F0BD9A
:20010000022200200DF1060101F0AAF80028EFD0BDF806305BBAC3F303309CB2ADF804300C
:2001200016F068FC16F0FCF80646C4F30B000F4616F070FC0CA3D3E9002304460D463046E5
:20014000394616F0D1FC02460B462046294616F0CBFC16F079FF074916F056FA17F0D2F81D
:2001600003B0F0BDAFF300807B14AE47E17A843FF81200200000C84208B51F4B1B68032B4F
:2001800031D1431E012B2ED8012813D01B4B188816F030FC00221A4B16F0A6FC0022194BD1
:2001A00016F0A2FC16F050FF174916F02DFA17F0A9F808BD154B188816F01CFC0022104BB1
:2001C00016F092FC0AA3D3E9002316F08DFC00220F4B16F0D1FA16F037FF0B4916F014FA7F
:2001E00017F090F808BD4FF0004008BDAFF300800000000000A0644000130020223F00204D
:200200000000F03E000059400000C842243F002000004440000000002DE9F041704B1B6881
:2002200053B30646062200216E4817F027FA16F038085AD172071FD002F096FA6A4C6B4D7C
:200240002746286006E002F08FFA2B68C31A0A2B40F18D806821012002F068F901223946C6
:200260003A2000F0FDFF0021084602F05FF92378002BE8D0DB0704D44FF000484046BDE895
:20028000F081584C6821012002F050F906222146432000F0E5FF054600286CD02346A01DC9
:2002A00019785A7859701A7002338342F8D10021084602F03BF9042E6AD0022E70D0012E25
:2002C000DCD1B4F9040016F0A5FB43A3D3E9002316F034FD16F0B8FE454916F095F917F039
:2002E00011F880464046BDE8F08102F03DFA3E4C3E4D2746286005E002F036FA2B68C31AE9
:200300000A2B48D56821012002F010F9012239463A2000F0A5FF0021084602F007F923785A
:20032000002BE9D0D907A7D52E4C6821012002F0FDF8214606223B2000F092FF002105469B
:20034000084602F0F3F8002D3DD02346A01D19785A7859701A7002339842F8D1202E22D044
:20036000102E2DD0082E33D04FF0000886E72378DB0781D585E74FF000482046062100F012
:2003800091FF2846294602F0D1F84046BDE8F081B4F9000097E72378D9077FF56DAFC3E7B9
:2003A000B4F902008FE7B4F9000001F0C3FA104916F02AF916F0A6FF80464046BDE8F0812E
:2003C000B4F90200F1E70621204600F06BFF53E7B4F90400E9E700BF000000000060604035
:2003E00050130020281300203F3F0020541300200000C842000000002DE9F04F23F0004B3D
:2004000080465BEA020014461D460E4693B016D143467D49DB1886F400225241984271EBED
:20042000020324D2404622462B46314616F0A6F9CDE90001DDE9000113B0BDE8F08F11468A
:20044000724A26F0004991459A463746434617DD07F1404707F580171F43E3D122196A49BB
:2004600085F400235B41974271EB0303DAD30023674CCDE90034DDE9000113B0BDE8F08FEE
:2004800040D0624A9345E3DC00F09380002F73DB0022029279B95D4A934500F08E805C4A7E
:2004A000934500F0A280BAF1804F00F0A084594A924500F0C68340463146049316F09AF8E5
:2004C000049BCDE900015BB3029AFB0F013B0A93134300F09380504B9B4540F3A38003F11B
:2004E00004739B454D4B40F31B84994540F39184BAF1000F40F39184002013B0BDE8F04F4C
:2005000016F072B8002B8DD1BBE740463146029316F070F8029BCDE90001002B6ED102932D
:20052000B9F1000F04D03A4B27F040429A42CBD1BAF1000F07DADDE900230020344916F071
:20054000FDFBCDE90001002FBFF674AF029B09F1404909F5801959EA030340F06E84DDE9FD
:2005600000231046194616F007F902460B4616F0E5FBCDE900015DE7294A93452FDCA2F13A
:20058000547293450FDD4FEA2B52A2F2FF32142A40F34584C2F1340221FA02F000FA02F238
:2005A0008A4200F077840022029200293FF477AF81E700293FF46AAF4AE709F1404202F5CB
:2005C000801213433FF453AF144B994540F36D83BAF1000FC0F26383CDE900452AE702221C
:2005E000029200293FF457AF65E7BAF1000FC0F2F48340463146CDE900011BE74246404612
:2006000033463146AFE700BF0000F0FF0000F07F0000F03F0000E03F0000E041FFFFEF3F9C
:20062000FFFF3F43D44B3B40002B40F04783DDE900010022D14B16F057FA6FF034028946BB
:20064000CDE900014FEA2953A3F2FF339A18CC4BC9F3130949F07F5699450B9246F44016AD
:2006600007DDC84B994540F3F58301320B92A6F580160022002300200027C349CDE9082380
:20068000CDE90601CDE91023DDE90001DDE906233146824616F070F8DDE90623B3468046A3
:2006A000894650463146CDE90CAB16F067F802460B460020B44916F041FB8C468346634650
:2006C0005A4640464946CDE90EBC16F00DFA82468B46731043F0005303F50023D9190F46D4
:2006E0005A46514600230020CDE900120093064602463B46CDE904ABDDE900AB5046594605
:2007000016F0F2F902460B464046494616F034F8DDE90623804689463046394616F02CF865
:2007200002460B46DDE90C0116F026F852465B4616F0DAF902460B464046494616F01CF84F
:20074000DDE90E2316F0D0F9DDE90467CDE9060132463B463046394616F0C6F974A3D3E95F
:20076000002306460F4616F0BFF973A3D3E9002316F004F832463B4616F0B6F970A3D3E983
:20078000002315F0FBFF32463B4616F0ADF96EA3D3E9002315F0F2FF32463B4616F0A4F910
:2007A0006BA3D3E9002315F0E9FF32463B4616F09BF969A3D3E9002315F0E0FF32468046BF
:2007C00089463B463046394616F08EF902460B464046494616F088F906460F46DDE90401A6
:2007E00052465B4615F0CAFFDDE9062316F07CF932463B4615F0C2FF5246804689465B46FB
:200800005046594616F070F902460B46CDE90C2300225E4B15F0B2FF42464B4615F0AEFF6A
:2008200000260F4632463B465046594616F05CF9002282468B4630463946544B15F09CFFC5
:20084000DDE90C2315F098FF02460B464046494615F092FFDDE9042316F046F93246804653
:200860008946DDE906013B4616F03EF902460B464046494615F082FF8046894600264246A7
:200880004B465046594615F079FF35A3D3E9002330460F4616F028F952465B4682468B469A
:2008A0003046394615F068FF02460B464046494615F062FF2CA3D3E9002316F015F90246B9
:2008C0000B463046394616461F4629A3D3E9002316F00AF902460B463046394615F04EFF7D
:2008E000DDE9102315F04AFF06460B980F4616F091F88046894632463B4650465946CDE965
:2009000004AB15F03BFFDDE9082315F037FF4FF0000A42464B4615F031FF42464B46504677
:200920008B4615F029FFDDE9082315F025FF2FE0EF4E454A287ECA3F65DBC9934A86CD3F9D
:2009400001411DA96074D13F4D268F515555D53FFFAB6FDBB66DDB3F033333333333E33F45
:20096000000000E009C7EE3FFD033ADC09C7EE3FF5015B14E02F3EBE0000F07F0000404325
:200980008E98030079B60B000000F03F00000840DDE9042315F0F0FE02460B46304639460F
:2009A00015F0EAFE029B0A9A013B13434FF000020CBFD54BD54BCDE90045CDE90223002332
:2009C0000093DDE90089CDE9040142464B462046294615F0D1FE52465B4616F085F8224694
:2009E00006460F46DDE904012B4616F07DF802460B463046394615F0C1FE42464B460646E8
:200A00000F465046594616F06FF804460D4630462B463946224615F0B1FEBD4B8046994217
:200A200089468A4640F3178101F13F4303F5E003034340F02482A2A3D3E9002330463946C8
:200A400015F09CFE02460B46404649469046994622462B4615F090FE02460B46404649467A
:200A600016F0D2FA002840F00A82CAF30A534FF480120020A3F2FE3342FA03F35344A54934
:200A8000C3F30A52A2F2FF3241FA02FCC3F3130B23EA0C01C2F114024BF4801BBAF1000FFB
:200AA0000B464BFA02FB294602462046B8BFCBF1000B15F061FE04460D46304639462246EA
:200AC0002B4615F05BFE89464FEA0B5A4FF000087DA3D3E900234046494616F005F8224614
:200AE0002B4604460D464046494615F045FE02460B463046394615F03FFE75A3D3E90023C4
:200B000015F0F2FF74A3D3E9002306460F464046494615F0E9FF02460B463046394615F0B3
:200B20002DFE8046894642464B462046294615F025FE22462B4606460F4615F01DFE0246FD
:200B40000B464046494615F017FE3246804689463B463046394615F0C7FF61A3D3E90023E4
:200B600004460D4615F0C0FF5FA3D3E9002315F003FE22462B4615F0B7FF5DA3D3E90023BA
:200B800015F0FCFD22462B4615F0AEFF5AA3D3E9002315F0F1FD22462B4615F0A5FF58A380
:200BA000D3E9002315F0EAFD22462B4615F09CFF02460B463046394615F0DEFD04460D46E6
:200BC00022462B463046394615F08EFF02460B462046294614461D4600224FF0804315F061
:200BE000CBFD02460B462046294616F0A7F8424604460D464B463046394615F075FF42466E
:200C00004B4615F0BBFD02460B462046294615F0B3FD32463B4615F0AFFD02460B46002000
:200C20003A4915F0A9FD8A44BAF5801FC0F223815146DDE9022315F057FFCDE90001FFF78A
:200C4000F9BB002FFFF637AC4046314613B0BDE8F04F15F0DBBBDFF8C0C021F00043634547
:200C600040F3CF802D4B0B4403430AD122462B4615F082FD32463B4616F0BCF900283FF49E
:200C8000F4AEDDE902010022002316F09FF9003818BF012013B0BDE8F04F15F09FBC0023AC
:200CA0000024CDE90034FFF7C5BBBAF1000FF6DA05F1004300940193FFF7BCBB0022C1E491
:200CC000FE822B654715973C00000000432EE63FEF39FAFE422EE63F396CA80C615C20BE96
:200CE000D0A4BE726937663EF16BD2C541BDBB3E2CDE25AF6A56113F93BDBE166CC1663F3E
:200D00003E5555555555C53F0000F0BF0000F03FFFFF8F40FFFF0F00FFCB904000346F3FB4
:200D2000994576DB724B99453FF7E2ABDDE9000100226F4B15F020FD61A3D3E90023064632
:200D40000F4615F0D1FE60A3D3E9002382468B463046394615F0C8FE0022CDE90001654BA6
:200D60003046394615F0C0FE02460B4658A1D1E9000115F001FD32463B4615F0B5FE024672
:200D80000B4600205C4915F0F7FC32463B46804689463046394615F0A7FE02460B464046F9
:200DA000494615F0A1FE4CA3D3E9002315F09CFE02460B46DDE9000115F0DEFC06460F46B3
:200DC0005046594632463B4615F0D8FC52464FF0000A5B4650468B46DCE542460020334641
:200DE000434915F0ABFFCDE90001FFF723BB424640463346314615F077FECDE90001FFF708
:200E000019BB3D4A934256DCDDE90023924693465CE6BAF1000FFFF66FAB00203AE7002961
:200E20007FF473ABC2F114024BFA02F000FA02F25A4539D00291FFF732BB029B012B7FF4D9
:200E4000F9AADDE90045224605F10043CDE90023FFF7F0BA0022294B4FF48027CDE906236B
:200E60001FA3D3E90023CDE908231FA3D3E90023CDE9102308E45A4600F042F8D9E60022CF
:200E8000DDE90201002316F0A1F8003818BF0120FFF733BB00F00100C0F102020292002950
:200EA0003FF4FDAAFFF707BB00F00100C0F102020292FFF7F4BA1B15D9E500BFAFF30080F3
:200EC000000000604715F73F44DF5DF80BAE543E555555555555D53FFE822B654715F73FA9
:200EE0000000004003B8E23F06D0CF43EBFD4C3E0000F03F0000D03F0000E03F0000F83FE8
:200F0000C1F30A5370B58C4604460D4616467BBB034621F0004C5CEA030328D0324B002211
:200F200015F0E2FD314B04469E420D461ADB8C46C1F30A53363B40F2FE723344934220DCA1
:200F4000002B3EDC13F1350F2CDA4CF250339E4217DC05F0004343F0D27141F4B731244833
:200F600041F01F011CA3D3E9002315F0BDFD70BD40F2FF7E7345DED102460B4615F0FEFBE9
:200F800070BD05F0004343F0FC4141F45F1141F4105113A3D3E90023164841F03C0115F0DB
:200FA000A3FD70BD2CF0FF4C03F136012CF4E00C4CEA01550022204629460F4B15F094FD53
:200FC00070BD2CF0FF4C2CF4E00C20464CEA035170BD00BFAFF3008059F3F8C21F6EA5013A
:200FE0009C7500883CE4377E00005043B03CFFFF59F3F8C29C7500880000903C4FF0E02359
:20100000D3F8282DB2F5806F04D0D3F8283D9B0500D4FEE7704700BFFEE700BFFEE700BFFF
:2010200008B508F063FE104A10498A420DD2104801390346891A21F003010431014453F8E4
:20104000040B8B4242F8040BF9D10A480A494FF000028842B8BF40F8042BFADB05F0F2FF58
:20106000FFF7CCFF08BD00BF000000204909002091AB010050090020683F0020F0B5002750
:2010800006463C463D4683B0304607F00DF90195019B9C4206DD00BF019B01330193019BA7
:2010A000A342F8DB304607F023F90195019BC4F5C8749C4206DD00BF019B01330193019B48
:2010C000A342F8DB0137B7F5487F06D0B7F5C87FD4BF3C46C7F54874D6E703B0F0BD00BF7B
:2010E00070B54FF08054194DD4F8D831284601215B6898470122D4F8D83111461B6828460B
:20110000984708F0C1FC02F093F802F013F800F0F7FD07F0C3F807F00FF90120FFF7AEFF68
:2011200001230B4ED4F8B01105F5B825F360094AAB600B691020D26A984708F0A9FC01F0D0
:2011400015FBBDE870400020FFF798BF00400340004009400020094008B541F2342003F011
:2011600099FB01F0CBFD07F051F90548082101F095FC07F01FF8BDE808400220FFF77EBF99
:201180006C1C002008210023F0B585B00DEB0100CDE9003301F082FCBDF80E40254D64BA9D
:2011A000EE6A4AF6CD31A4B20220B04721460320B0471A210120B04708226B6B0DEB02015B
:2011C0000B201D4F984701206946AC6AA0473B68022B1ADC022001A9A04778B93B68022B52
:2011E00008DC0021154806F081FB0020FFF746FF05B0F0BD0199124809F0CEF93B68022BDA
:20120000EFDD104809F0C8F9EBE70F4A0F49104809F0C2F90F4809F0BFF93B68022BD9DDD3
:201220000A49094A0A4809F0B7F900990A4809F0B3F9CFE7909B0100780700208C07002049
:20124000C49A0100FCA60100749A0100849A01008C9A01009C9A0100B49A010001F000BE02
:2012600000B58E46844683B01346012172460DF107008DF807C001F037F803B05DF804FB3D
:20128000074B18703AB101EB020C11F8010B614503F8010FF9D101320148D1B200F060BEF2
:2012A0004012002029B1CC23014401F8013D8142FBD17047813801289ABF024B1868002009
:2012C000704700BF7C1200200322024B02481A6006F0AEBE7C120020049B0100554B1B68E1
:2012E000032B40F0A380431E012B2DE9F041044600F29980504D06220021284616F0BEF933
:201300007721002001F012F906222946F720FFF7A7FF00287FD02B794849E8781B0143EA7A
:20132000003395F800E0088895F801C0AA786D79B1F90A7043EA1515C0EB131303FB03F3E7
:201340004000C0EBD500B1F904501B1305FB03F3B1F902509B1305FB00F003EBE0235E10B2
:20136000A6F57A46B51005FB05F5B1F908004FEA653806FB00F008FB07F7401000EBE700B7
:201380008014CF8800F5004007FB00F0C0138B6139D0EF12B1F90E50120906FB05F5B1F9AA
:2013A00010606D0006FB0755B1F90C6042EA0C12360406EBA50542EA0E3202EB2532204DA1
:2013C000B1F9146005FB02F202F1434202F5A002002AB3BFB2FBF0F25200B2FBF0F252008C
:2013E000D00800FB00F0B1F91650400B05FB00F0B1F91250910806FB01F1491301EB2031AE
:20140000294402EB2110012C03D103EB830080300012BDE8F08128460621FFF743FF4FF0EB
:201420000040BDE8F0814FF00040F2E74FF00040704700BF7C120020801200206012002017
:20144000CBF3FFFF30B5802883B005D0812828D02D4B186803B030BD01242B4D77210020AD
:201460002C6001F063F81C2228498820FFF7F8FEB62322460DF10701E0208DF80730FFF758
:20148000FFFE7721002001F051F8002322460DF10701F4208DF80730FFF7F2FE286803B0D3
:2014A00030BD194D28680028D4D00C46B9B17721002001F03BF825230DF107010122F42060
:2014C0008DF80730FFF7DCFE00230321104A114805F01EFF022318462B6003B030BD0D4871
:2014E00005F05EFF2046772101F020F801220DF10701F4208DF80740FFF7C2FE0123184652
:201500002B6003B030BD00BF7C12002060120020C912000088120020813801289ABF024B84
:2015200018680020704700BFB01200200322024B02481A6006F07CBDB01200201C9B0100B4
:20154000314B1B68032B5CD1820770B5044626D0032809D0012804D0022820D12B4B186831
:2015600070BD2B4B186870BD2A4D4421002000F0DDFF022229460420FFF772FE58B12B887A
:201580005BBA2B805B0406D5234D022229460120FFF766FE30B904211F48FFF783FE4FF0A8
:2015A000004070BD02222046A918FFF759FE0028F1D02888164E40BAC0F38D0015F04EFE9E
:2015C0004FF0745115F020F8044668880F4D40BAC0F38D0015F042FE4FF0745115F014F8C0
:2015E0000E4915F011F815F08DFE03460B492046336015F009F815F085FE03462B600120DD
:2016000070BD4FF000407047B0120020A8120020B4120020203F0020AC12002000007A44AA
:20162000802838B504D0812827D02A4B186838BD4FF08054D4F8B43101209B6B9847D4F821
:20164000B4314FF4804101209B699847D4F8B4314FF08041DB69012098474421002000F033
:2016600065FF022200231C4910460B80FFF708FE0123184A1846136038BD164D2868002816
:20168000D5D00C46A1B14421002000F04FFF02221023114910460B80FFF7F2FD002324215F
:2016A0000E4A0F4805F034FE022318462B6038BD0B4805F075FE2046442100F037FF022281
:2016C000054910460C80FFF7DBFD012318462B6038BD00BFB0120020203F00202D150000A8
:2016E000B8120020014B1868704700BFF812002000B5452183B0002000F018FF02220120DA
:201700000DF10601FFF7ACFDBDF90630002B08DB00231021074A084805F0FAFD03B05DF842
:2017200004FB064806F084FC0222054B1A6003B05DF804FBF1160000D8120020349B010010
:20174000F812002070B5802882B01DD081282ED10C4679B301244521002000F0E7FE41F29A
:20176000C20321480DF10601046002222046ADF80630FFF785FD002310211C4A1C4805F0E2
:20178000C7FD204602B070BD174D45212B68002003F0020400F0CAFE4FF4865302220120B1
:2017A0000DF106012C60ADF80630FFF769FD002002B070BD0C4E0E4805F0F2FD33682046CD
:2017C000452103F0020500F0B1FE4FF4865302220DF1060101203560ADF80630FFF750FDF1
:2017E000204602B070BD00BFF8120020F1160000D8120020813801289ABF024B1868002082
:20180000704700BF00130020032138B5114C124A2378116033B9012310482370BDE8384031
:2018200006F006BC0E4D4321002000F07FFE0421284600F0B3FC00212070084600F076FE0F
:201840002A886B880748084952BA5BBA02800B80E1E700BF3C3F0020001300204C9B0100D8
:20186000FC120020243F0020223F002030B5802883B005D0812827D0274B186803B030BD6F
:201880000024264B264D0422214626481C802C8015F0F4FE2046432100F048FE02221023AF
:2018A0000DF106011046ADF80630FFF7E9FC02461D4B204621461A7000F038FE0123184668
:2018C000154A136003B030BD134C20680028D5D069B1154D2B7893B900230321134A144877
:2018E00005F016FD02231846236003B030BD104805F056FD01231846236003B030BD432191
:20190000002000F013FE002000F0FEFB00212870084600F00BFEDFE700130020223F002023
:20192000243F0020FC1200203C3F0020091800000413002008B5174B1B78032B28D8DFE85C
:2019400003F0151E0C0215F065F800224FF07D5315F0CAF815F078FB08BD15F05BF8002242
:201960000D4B15F0C1F815F06FFB08BD15F052F800220A4B15F0B8F815F066FB08BD15F072
:2019800049F80022064B15F0AFF815F05DFB08BD002008BD3D3F00200000303F0000103F86
:2019A0000000203F813801289ABF024B18680020704700BF501300200222024B02481A6072
:2019C00006F036BB50130020649B010010B56821012000F0ABFD3F23094C012221466C20C9
:2019E0002370FFF74DFC4F23214601226B202370FFF746FCBDE810400021084600F096BD1C
:201A0000413F00208028F8B50CD0812807D111F03F0135D12F4BD3F88030DB0443D42E4BC9
:201A20001868F8BD4FF08054D4F8B43107209B6B9847D4F8B4314FF4005107209B69984752
:201A4000D4F8B4314FF080410720DB699847D4F8B4310C20DB6B9847D4F8B4314FF44072E3
:201A60004FF480610C209B6A98474FF48054002218481A4B1849C0F8A0401A600868F8BD9C
:201A80004FF480570124154B124E134D1960144AC6F890700023082112482C6005F038FCF7
:201AA00020462C60F8BD0D4B0E48196005F078FCFFF78CFF0C4AD2F8043813F00103FAD140
:201AC0004FF48050044A03491360C1F8A0001068F8BD00BF00200240501300202413002065
:201AE000ED1A000030130020002000402DE9F041354C236813F0380F28D1344D03F03F02D1
:201B00002E7814465EB9002A3AD1FFF75FFFBDE8F041002305212E4A2E4805F0F9BB2A70D5
:201B2000002AF2D02C4FE343682101203B7000F0FDFC012228496C20FFF7A2FB00210846B8
:201B400000F0F4FC254807F0A7FFE0E7244F3A78002AD2D00025234E68210120357000F00E
:201B6000E5FC314601221C20FFF78AFB06462946284600F0DBFC2368002EBED03D70BCE7AC
:201B80006821012000F0D2FC0923134F012239466B203B70FFF774FB3F23012239466C2082
:201BA0003B70FFF76DFB01220E491C202E70FFF767FB012239463A20FFF752FB3146304644
:201BC00000F0B4FC2C70AEE724130020403F0020B919000030130020413F002080380100B0
:201BE0003D3F00203E3F00200022014B1A707047423F002070B500244FF08055174B18483D
:201C00001C7001F091FA174AD5F8B811D368204623F00103D3600B6A9847D5F8B83120466A
:201C20009B6A9847D5F8B83120461B6B984701210D4B0E4A9962936A9B07FCD54FF08054EF
:201C4000D4F8B43115209B6B9847D4F8B4310021BDE8704015201B6A184700BF423F002019
:201C60009005002000000140002008600020084010B54FF08054D4F8B83104205B6998472A
:201C8000D4F8B83104205B6B98470128F8D110BDFFF7EEBF032801D000F0FCB808B5FFF711
:201CA000A9FF114B00219B68812098470F4B00219B68812098470E4B00219B688120984781
:201CC0000C4B00219B68812098470B4B00219B68812098474FF48052084BC3F8A020BDE887
:201CE000084000F0D7B800BF049B0100349B01001C9B01004C9B0100649B010000200240EC
:201D000070B507F0C1FE0646FFF7B2FF4FF08053D3F8B8314FF4A060DB6998470121414B1B
:201D2000414A9962936A9B07FCD54FF080544FF4005500F07FF8FFF757FF002007F0C8FD73
:201D40003A4801F0EBF9D4F8B43119209B6B9847D4F8B431294619209B699847D4F8B43170
:201D600018209B6B9847D4F8B431294618209B699847D4F8B43117209B6B9847D4F8B4318D
:201D8000294617209B699847D4F8B4311B209B6B9847D4F8B43129461B209B699847D4F8DF
:201DA000B4311E209B6B9847D4F8B4314FF480411E209B699847D4F8B4310D20DB6B984742
:201DC0001B4AD4F8B431C2F8A05000214FF480720D209B6A9847D4F8B43102209B6B984724
:201DE000D4F8B431294602209B699847D4F8B4310B209B6B9847D4F8B43129460B209B69AE
:201E00009847D4F8B4311D209B6B9847D4F8B43129461D209B69984706B170BDBDE8704097
:201E200007F036BE0020086000200840A40500200020024070B54FF08055D5F8B83102208B
:201E40005B699847D5F8B83102205B6B984701280446F7D1D5F8B8314FF44070DB6998475B
:201E6000084B094A9C62936A9B07FCD5BDE870404FF08053D3F8AC310122044904481B6800
:201E8000184700BF0020086000200840006CDC0200200040FF214FF0805310B52B4A0220FC
:201EA0001170D3F8B8315B6B984701280AD1284B1B6EDA0706D500232649274AC1F8043894
:201EC000C2F810344FF08053D3F8B8314FF440701B6A98470121214B1D4A9962936A9B0758
:201EE000FCD54FF08054D4F8B43108209B6B9847D4F8B4314FF4005108209B699847D4F824
:201F0000B43109209B6B9847D4F8B4314FF4005109209B699847D4F8B43105209B6B9847C2
:201F2000D4F8B4314FF4804105209B699847D4F8B43106209B6B9847D4F8B4314FF4804173
:201F4000BDE8104006209B69184700BF46090020002008400020004000000542002008603E
:201F60002DE9F047664B674D1B7807465B00C5F8003803780E46C5F8083800F0F5FB00F5DE
:201F8000CC541934D5F804385B0608D500F0ECFB001B0028F6DB00242046BDE8F0870323D6
:201FA0000220C5F8043807F077FD00F0DDFBDFF8548100F5CC541934D8F80438D80746D4C0
:201FC0004FF08053D3F8AC314E485B68984710F00C0F7DD1012E40F28F800028DBD101243D
:201FE000A046484D06F1FF39631E3B4402E00134B4423ED213F8012F4C45C5F80828F6D299
:202000000220C5F8048807F047FD00F0ADFB00F5CC5A0AF1190AD5F80438D90710D44FF03D
:202020008053D3F8AC3128465B68984710F00C0F824612D10134B44218D20028D4D0AAE7DD
:2020400000F092FBA0EB0A000028E4DBA3E700F08BFB001B0028AFDB9DE704230220C5F830
:202060000438013407F018FDB44294D3BAF1000F91D10523234D0220C5F8043807F00CFDB7
:2020800000F072FB00F5CC541934D5F80438DA0725D44FF08053D3F8AC311A485B689847E0
:2020A00010F00C0F044620D100F05EFBB4FA84F400F5CC55134E64091935D6F804385B06BE
:2020C0007FF56AAF00F050FB401B0028F5DB62E704230220C8F8043807F0DEFC5BE700F054
:2020E00043FB001B0028D0DB55E704230220C5F8043807F0D1FCD7E700287FF44CAFB8E77F
:20210000433F00200020004070B5224B224D1B785B00C5F80038C5F8080800F025FB00F507
:20212000CC541934D5F804385A0606D500F01CFB001B0028F6DB002070BD07230220C5F87D
:20214000043807F0A9FC00F00FFB134E00F5CC541934D6F80438DB070ED44FF08053D3F83F
:20216000AC310D485B68984710F00C0F044609D1B4FA84F0400970BD00F0F6FA001B002891
:20218000E7DBD8E704230220C6F8043807F084FCEEE700BF433F0020002000402DE9F04F19
:2021A0004F4B504E1B7883B05B0043F00103C6F800388046019100F0D7FA00F5CC5519351C
:2021C000D6F8044814F040040AD000F0CDFA401B0028F5DB4FF0000B584603B0BDE8F08FFA
:2021E0000B23019A022002F1FF39C6F8043807F053FCB9F1000F25DD41F699164FF08057D2
:20220000384D00F0B1FA00EB060AD5F8043813F0010B4AD1D7F8AC3128465B68984710F0B4
:202220000C0F49D10028D5D10923D5F80828022008F804200134C5F80438E4B207F02CFC49
:202240004C45DEDB0523274D0220C5F8043807F023FC00F089FA00F5CC541934D5F8043889
:2022600013F0010B32D14FF08053D3F8AC311D485B68984710F00C0F1ED10028AAD1019A43
:20228000D5F80838904408F8013C00F06DFA154D00F5CC541934D5F804385B061CD500F0BA
:2022A00063FA031B002BF6DB94E700F05DFAA0EB0A000028A9DB8DE704230220C5F80438EE
:2022C00007F0EAFB584603B0BDE8F08F00F04CFA031B002BC2DB7DE74FF0010B7CE700BFC0
:2022E000433F0020002000402DE9F04FDFF834A28D4F9AF8004099466400C7F80048037867
:2023000083B00192C7F8083805460E4600F02CFA00F5CC541934D7F80438580608D500F0AB
:2023200023FA001B0028F6DB002003B0BDE8F08F03230220C7F8043807F0AEFB00F014FA94
:20234000794F00F5CC541934D7F80438D90700F1B5804FF08053D3F8AC3173485B6898472B
:2023600010F00C0F40F0C280012E40F2D6800028DAD12E440127DFF8B0B101350EE04FF011
:202380008053D3F8AC3158465B68984710F00C0F04461BD1B54221D00028C5D115F8013B42
:2023A0000220CBF80838CBF8047807F075FB00F0DBF900F5CC541934DBF80438DA07DED589
:2023C00000F0D2F9001B0028F6DBADE704230220CBF8043807F060FBB542A5D1002CA3D1F3
:2023E0000B229AF80030504C5B0043F00103C4F800380220C4F8042807F04EFBB9F1010FC8
:2024000027D041F699174FF0805A019B9E1E5D1E4E4400F0A9F900EB0708D4F8043813F0C9
:20242000010B52D1DAF8AC3120465B68984710F00C0F51D100287FF477AFD4F8083802208A
:2024400005F8013F0923C4F8043807F025FBB542DFD10523344D0220C5F8043807F01CFB8B
:2024600000F082F900F5CC541934D5F8043813F0010B42D14FF08053D3F8AC312A485B6875
:20248000984710F00C0F3ED100287FF44DAFDDF80480D5F80838C84408F8013C00F064F9A0
:2024A000214D00F5CC541934D5F804385B0632D500F05AF9031B002BF6DB35E700F054F925
:2024C000001B0028FFF640AF2EE700F04DF9A0EB08000028A1DB27E704230220C4F8043804
:2024E00007F0DAFA584603B0BDE8F08F04230220C7F8043807F0D0FA16E700F035F9031B5E
:20250000002BB2DB10E704230220C5F8043807F0C3FA584609E7012007E700283FF460AF0F
:2025200002E700BF433F0020002000404FF0805370B53A4A04461170D3F8B83102205B6BCF
:20254000984701283ED0FFF775FC354B1A78A24240D00022334D34491C70C5F80428C1F8AB
:2025600010241B78002B36D0012B20D14FF08054D4F8B4314FF4C04108209B699847D4F867
:20258000B4314FF4C04109209B699847D4F8B431092208212846DB6C9847D4F8B431052097
:2025A0009B6B9847D4F8B43106209B6B9847BDE870404FF08053D3F8AC3101221B49194883
:2025C0001B6818471A4B1B6EDB07BCD5144B1A78A242BED170BD4FF08054D4F8B4314FF420
:2025E000C04105209B699847D4F8B4314FF4C04106209B699847D4F8B43106220521284667
:20260000DB6C9847D4F8B43108209B6B9847D4F8B43109209B6B9847C9E700BF433F002006
:20262000460900200020004000000542006CDC020020084010B54FF08054D4F8B831042021
:202640005B699847D4F8B83104205B6B98470128F8D110BD38B5002400254FF080531A4AEE
:202660000420C2E90045D3F8B8315B6B9847012801D0FFF7DFFF4FF08053D3F8B831002039
:20268000DB6998470121114B114A9962936A9B07FCD54FF080520F4C0F49E368204623F447
:2026A000807323F00103E360D2F8C83104251B689847312040F221210122084B2560E0637C
:2026C000A1605A6038BD00BF50090020002008600020084000000140002100040000244355
:2026E00030B4084B9A68D86899688A42FAD10025054BD20102EB5064C3E90045D3E9000132
:2027000030BC7047002009405009002038B50A4B9A68D86899688A42FAD10025074BD201CE
:2027200002EB5064C3E9004504F09EFF00B938BDBDE8384004F078BF00200940500900209E
:2027400010B507F0A1F9044B9C6808B1204610BD07F09EF9204610BD00200940704700BF44
:202760000146012000F04AB807F0E8B82DE9F84307F08AF901254FF480724FF000094FF4B7
:2027800080334FF080561B4CDFF86C802321C8F80090656062606360D6F8843107461B6816
:2027A00048469847D6F88431242128461B689847D6F88431252102201B689847236843F405
:2027C000E0232360C4F8089007F0B8F80346D6F8B02103F50073E361C8F8A052C8F800501F
:2027E0001420136998470FB1BDE8F883BDE8F84307F04EB90020094000002443431E012B2F
:2028000009D9042800D0704701221048104B0162C3F8C0227047012813D102460B4B9961F1
:2028200010F002000FD0094BD96122B10122084BC3F8802220B10122054BC3F8A02270470B
:2028400070470022ECE7002AF0D170470020094000002443014B1868704700BF581300208D
:2028600010B5FFF781FF194B1860FFF74FFF184BD3F8A0307BB9164BD3F88020EAB9144BFD
:20288000D3F8C02032B100204FF48031114AC3F8C002516010BD4FF480730E4C636007F0F6
:2028A0004DF800F2052020F4FF70094B20F00100E061D3F88020002AE1D000200121054ABC
:2028C000C3F88002516005F017F9D8E75813002000002443002009400122034B03491960B5
:2028E000C3F8002C704700BF00000840502D190010B507F0C9F8104BD3F8002C012A09D0CA
:2029000001224FF086410D4C1C60DA60C1F8042170B110BD4FF08641094CC3F8004C074CFE
:202920001C60DA60C1F80421C3F8002C0028F0D1BDE8104007F0ACB800000840502D190005
:2029400051E5CC1A0122024B02491960DA60704700000840502D190070B5044607F094F866
:2029600021460646114805F0C7F9104805F0C2F938B101210E4B0F4AC3F8001253699B06A7
:20298000FCD54FF08055D5F8A03160681B689847D5F8A03160689B6898471128F8D106B189
:2029A00070BDBDE8704007F073B800BF5C130020000022430010094008B5064805F09AF9D4
:2029C00038B10121044B054AC3F8001253699B06FCD508BD5C130020000022430010094041
:2029E00010B5A8B14FF0805C0021134C134A6368012023F4C0536360DCF8A031C2F88011F8
:202A0000C2F80012DB68984763699B06FCD410BD04460B4805F06EF90028E3D005C81443C6
:202A20000028FBD1002CDDD0034A536823F4C05343F40063536010BD0010094000002243BF
:202A40005C13002038B5054607F01EF804462946054805F099F90020FFF7C2FF04B138BD94
:202A6000BDE8384007F014B85C13002070B590B10E460024451E04E0A64206D000F052F9C9
:202A8000013415F8010F0028F6D100F06BF90128FBD0204670BD0446F7E700BF10B40C4B18
:202AA0000C4C1A780133FF2A0FD1A342F9D10A4C49B10139631801381978A34200F8011F74
:202AC00003F1FF33F8D110BC7047014CF0E700BFC8FF0100D0FF0100F012005038B54FF08B
:202AE0008055D5F8B83102205B699847D5F8B83102205B6B984701280446F7D1D5F8B83118
:202B00004FF40070DB699847034B044A9C62936A9B07FCD538BD00BF002008600020084031
:202B2000F0B54FF0805540F2F27683B0284CFFF7D5FFD5F8D0312046DB689847D5F8B031CD
:202B400015205B699847A36BD5F8B42123F4FE6323F00203A3636664D36B1D2098474FF0F4
:202B600000514FF0FF331B4A2046C2F89010D5F8B4210093176C1C211D22B847D5F8D0217D
:202B800060232046576814494FF4E132B847142240F2011340F201306263E26A0F4942F061
:202BA0001002E2620A68002A18BF0346236366640B685BB11520A36BD5F8B02143F05003CD
:202BC000A363136903B0BDE8F040184703B0F0BD0010004000200240006CDC02601300209D
:202BE0004FF0805370B5D3F8B83104465B6B02209847012807D13D4BDB6EDD0703D53C4AC5
:202C000093691807FCD4032C5AD03A4B1B6803B170BD4FF08055D5F8B83102205B6B9847F6
:202C2000012830D1314BDB6EDB072CD54FF080562F4DD6F8D0312846DB689847D6F8B03123
:202C400015205B69984740F2F271AB6BD6F8B82123F4FE6323F00203AB6369644FF400702C
:202C6000136A9847032C14D14FF08054D4F8B8314FF400709B6A9847D4F8B8314FF400701D
:202C80001B6B984705E0D5F8B8314FF400701B6A98470121184B154A9962936A9907FCD5D0
:202CA0001D2000F057FA1C2000F054FA4FF0FF3000F050FABDE870404FF0FF3000F04ABABD
:202CC0004FF08055D5F8B83102205B6B9847012806D0D5F8B8314FF400701B6A9847C3E7ED
:202CE000024BDB6EDA07A1D4F3E700BF0020084000100040601300200020086010B506F0C1
:202D0000C3FE0446054800F009FA0022044B1A6004B110BDBDE8104006F0BABEB8050020BB
:202D2000601300204FF0805310B5D3F8B83104465B6B0220984701280BD0FFF7F1FE4FF03C
:202D40008053D3F8D0312146BDE810400348DB691847034BDB6EDB07F1D4EEE70010004027
:202D60000020084008B54FF08053D3F8B83102205B6B984701280AD1064BD86E10F0010005
:202D800004D0A3F501239869C0F3C00008BD002008BD00BF0020084070B5FFF79FFE40F274
:202DA000F2720C4C236C626413F0500F0DD00A4D4FF0805606E0D6F8D03120461B699847D9
:202DC0002B681BB9A369DB06F5D570BDC0B29847EEE700BF001000406013002010B51D4CB2
:202DE000FFF7C2FC237863B100231B491B4A096823701368411A5B181360536843F10003D2
:202E0000536063781BB90123134A637050604FF0E022D2F8103D23F00403C2F8103D30BFE4
:202E2000FFF790FDFFF7A0FC637863B100230A490A4A496863709368411A5B189360D36849
:202E400043F10003D36023781BB90123024A2370106010BD841900208C190020C00D0020EA
:202E600070B506F011FE04F0FBFD18B1BDE8704006F00EBE9D4804F03DFF0225044648B1DD
:202E8000636823B19847A84228BF2846C5B22468002CF5D1FFF768FC954B0446D3F880327F
:202EA000002B00F0FC80934B9B691B1A022B00F1C980A3F28F23002BACBF022301239D42F8
:202EC00028BF1D4604F0D0FB002840F0C180012D00F0F580022DC9D12846611EFFF78EFC87
:202EE000824804F007FF06250446002800F0D980A3680BB1022098472369246825EA030531
:202F0000002CF5D1FFF71EFD6B0700F1CD80002D40F0CD8000F0ECF90020FFF761FD4FF0CC
:202F20008052754C3920236823F003032360A36843F00F03A360D2F8B8319B699847002075
:202F40006E4B20642064C3F8200407F071F9062D00F0C7806A4CFFF707FC237863B1002385
:202F60006849694A096823701368411A5B181360536843F100035360A3781BB90123614ACA
:202F8000A37090604FF08055604A5A4B0321DB6AD2F824325E4823F00303C2F82432D5F8A6
:202FA000D8315B689847D5F8B8319B6B9847FFF7DBFBA37863B100235249534A8968A37071
:202FC0001369411A5B181361536943F10003536123781BB901234B4A23701060454C0025AB
:202FE000E36A07F045FA4FF080534A4AD3F8D831C2F88051012146485B6898470120434A49
:203000004549D2F8243243F00303C2F82432C860E36A07F05FFAFFF7CFFCFFF777FBFFF7D5
:2030200091FC324804F066FE044628B1E36803B198472468002CF9D106F02AFDBDE870403C
:2030400006F026BD04F010FB00283FF40FAF002504F012FB0646FFF743FB361A002E7FF7E5
:2030600005AFFFF7F7FB00EB46210B1BA3F28F22002A2DDA002D3FF4F9AE082B25D404F599
:203080008034631A31EA230128BF21460220FFF7B5FBFFF7A3FEBDE8704006F0F9BC0223EE
:2030A0000DE7FFF74FFC062500221B4BDA604FF08053D3F8B83128469B6998472AE70220A4
:2030C00004F58031FFF79AFBE3E704F10801DDE7012DD2D0022D7FF4C9AE2846FFF78EFB59
:2030E000FEE6022006F076FD34E700BF641300200000244300200940001009400000224362
:20310000841900208C190020C00D00200020084000400340000004430040094001460148F5
:2031200004F0EABD641300200146014804F02CBE6413002010B5064804F0D8FDBDE8104087
:203140004FF08053D3F88431202103201B68184764130020431C10D04FF0805310B5D3F81F
:20316000B43104464FF4C0421B68002198470022024B43EA84031A6010BD7047001A444297
:20318000034BD3F8E000C3F8E00005F073B800BF002002404FF0805370B5D3F8B4310C4621
:2031A0005B680546984714F00C0320F0E06222F4EC2207D0042B23D0082B24D00C2B08BF7B
:2031C00042F4403214F0030310D142F4C04223064FF08053D3F8B4312846BDE870404FF037
:2031E00000011B6848BF42F480221847022B04D0012B08BF42F48042E9E742F40052E6E7FC
:2032000042F40032DEE742F48032DBE7074AD2F8D030C340DB074CBFD2F88030D2F8C03098
:2032200023FA00F000F00100704700BF002002400022412300B585B002A8CDE90223FFF7CD
:203240008BFB042006F0B6FC032805D102A8FFF7F9FB05B05DF804FB0321042006F07EFCC6
:20326000042006F0A7FC0328FAD11C234FF0405200210090044806F029FC02A8FFF7E2FBF6
:2032800005B05DF804FB00BF00A00C400022412300B583B06846CDE90023FFF75DFB012016
:2032A00006F088FC012803D00121032006F056FC6846FFF7C7FB03B05DF804FB0022412318
:2032C00000B583B06846CDE90023FFF745FB012006F070FC012805D04FF08053D3F880006B
:2032E00006F002FB6846FFF7ADFB03B05DF804FB10B54123002482B06846CDE90043FFF76C
:203300002BFB0320214606F029FC012006F052FC20B96846FFF796FB02B010BD4FF08053DE
:20332000D3F8800006F0E0FA6846FFF78BFB02B010BD00BF70B50388044633B1B3F52F7FD6
:2033400008D182290AD0012070BD4FF42F732380012070BD00232380032070BD094B0A4E29
:203360001D69FFF7EFFA05F075FC05F045FD8021A847002880B2E8DD05F038FDF368984738
:20338000EFE700BF909B01004CA20100024BD3F89C0100F0010070470020084038B510F0CB
:2033A000030305460C4602D10288110509D406F06BFB1C4BD3F89C31DB0715D450B30020D1
:2033C00038BD438006F060FB164BD3F89C31DA07F4D52B8813F4405F06D003F44063B3F5D0
:2033E000006F04BF104B1D6010494CF250320D604B68236003E04B68013A2360DED0DBB278
:20340000002BF8D050B12078A0F10100B0FA80F0400938BD06F03CFB0020D1E706F038FB08
:20342000F1E700BF002008406813002000100440094A01E0013A0DD0438803F44063B3F545
:20344000806FF7D1428802F44062A2F58062B2FA82F252091046704720A1070070B54FF026
:20346000805482B006F010FBD4F8B03105461B6A19209847D4F8B03112201B6A9847D4F8A1
:20348000B03119205B699847D4F8B03112205B699847D4F8B83101205B699847D4F8B831BF
:2034A00001205B6B98470128F8D1174A174BD0629862936A9B07FCD54FF080540022144B61
:2034C000D4F8B0111A615A6119200B699847D4F8B03112201B6998479DB140F2FF36002482
:2034E0000C4B0D4A0D4D01A92E600D48DC611A60FFF754FFA0F10100B0FA80F0400902B090
:2035000070BD06F0C5FAE8E700200840002008600010046000100440510007060000046080
:203520000100060400B587B01422002101A814F0A5F84FF0010C40F60A0216499DF8113030
:2035400009686CF30303059101A86946ADF804208DF81130FFF722FF012816D10E4801E0BA
:2035600001380FD0BDF8063003F44063B3F5806FF6D1BDF8060000F44060A0F58060B0FAE2
:2035800080F0400907B05DF804FB002007B05DF804FB00BF7813002020A1070000B587B01E
:2035A0001422002101A814F069F84FF0010C40F609029DF8113069466CF3030301A8ADF8E1
:2035C00004208DF81130FFF7E9FE012803D0C0B207B05DF804FB134801E00138F8D0BDF8B9
:2035E000063003F44063B3F5806FF6D1BDF8063003F44063B3F5806F0FD10B4B1A7842B9BE
:203600000122059809491A700860104607B05DF804FB012007B05DF804FB002007B05DF8ED
:2036200004FB00BF20A10700443F00207813002030B54FF0805487B006F026FAD4F8B031C4
:2036400005465B6919209847D4F8B03112205B699847304BD3F89C31DA072FD4FFF79EFF37
:20366000002001212B4A2C4BD0629962936A9B07FCD54FF08054D4F8B83101209B699847B3
:20368000D4F8B83101205B6B98470228F8D1D4F8B03119201B6A9847D4F8B03112201B6A0E
:2036A0009847D4F8B03119201B699847D4F8B03112201B69984745B307B030BD0021174B81
:2036C000102219610124596102A813F0D7FF40F60D029DF8153002A864F3030301A9ADF867
:2036E00008208DF81530FFF759FEA042B6D10C4A01E0013AB2D0BDF80A3003F44063B3F5FD
:20370000806FF6D1BDF80A30A8E707B0BDE8304006F0BEB9002008400020086000100460D8
:2037200020A1070008B506F015F9052803460ED0032806D080B903220C4B0120C3F8D02129
:2037400008BD0222094B0120C3F8D02108BD074A0120C2F8D03108BD012801D0002008BDC9
:203760000521024AC2F8D01108BD00BF0020084008B5FFF773FE012804D1FFF7D3FE01283E
:2037800000D108BDFFF754FF002008BD08B5FFF705FFFFF7C7FE012800D108BDFFF748FFF7
:2037A000002008BD38B5194B194A1978D2F89C210029184C18BF0024D30700D438BD06F037
:2037C00063F902464FF080550021134B134898615C611446D5F8B0211961136A192098479A
:2037E000D5F8B03112201B6A9847D5F8B03119201B699847D5F8B03112201B699847002CCC
:20380000DCD1BDE8384006F043B900BF463F0020002008400000C0800010046000004080AC
:20382000094B1B782BB100231946084A116153617047074A074B0849002808BF1346034A8B
:2038400011615361704700BF463F0020001004600200C0800800C0800000C080044A054B4B
:203860001178054A002918BF00235361704700BF463F00200000C08000100460014B1868FE
:20388000704700BF6813002038B50B460446154600211A4613F0F2FE0122637B258062F3C5
:2038A0000303637338BD00BF014B1860704700BF6C13002010B5064B06495C6806480C60BC
:2038C00000234FF43441054A03F022FD012010BD0030044074130020801300205139000066
:2038E000164B1B6843B370B59B68984708B9002070BD06F0C9F80023114A124E54683268EE
:2039000014F1804143F10003914273F10003054603D3346065B1012070BDFEF725FF0A4AEA
:203920000A4913680860013313603460002DF2D106F0AEF8012070BD002070476C130020C6
:2039400000300440741300207C1300207013002010B5134B1B68B3B19B689847D8B9114C20
:20396000236A984701280ED1FFF7BAFF636A0446984744B1BDE8104000234FF434410A4A15
:203980000A4803F0C5BC0023BDE810408021064A064803F0BDBCFFF7A3FF0446E9E700BF2D
:2039A0006C130020909B0100513900008013002070B5204E3368002B39D09B680446984771
:2039C00008BB1D4D2B6A9847FFF78AFF6B6A98471A4BB4F1404F1D681CD83368184AB3F958
:2039E0000C301168DA175B1A62EBE172191945EB02052D0243F609520023080245EA116112
:203A000013F0A6FC70BDFFF76BFF0C4BB4F1404F1D68E2D9FEF7A8FE0A4B1B68C3F17E43C1
:203A200003F57203C34248BF05F1FF35D5E7184670BD00BF6C130020909B01007C13002063
:203A4000781300207013002010B5104BD3F89C31DA0704D4FFF702FD012800D010BD0C4C94
:203A600023695B0204D46FF00042094B1A6110BD0122084B08481A7004F02EF86FF48003F8
:203A80006FF000422361024B1A61F0E70020084000100460473F0020CC05002008B5114BD6
:203AA000D3F89C31D90704D4FFF7D8FC012800D008BD05F0E9FF0C4B1A6912020BD40A4B2F
:203AC0001A6912F00A0F1CBF6FF00A021A61BDE8084005F0DDBF6FF4000204481A6103F0EA
:203AE000FBFFECE70020084000100460CC050020014B1878704700BF483F002008B5FFF780
:203B000045FC30B1034B5888A0F10200B0FA80F0400908BDA41300207D2901D9012070476B
:203B200008B50A460146024813F0B6FC002008BD7A16002010B588B040F60202182102A883
:203B4000FFF7A2FE012211499DF818300968104C898823F00F03ADF81A1002A801A90794B4
:203B60008DF818308DF81620FFF718FC012802D0002008B010BD02A8FFF75AFCA0F101008B
:203B8000B0FA80F0400908B010BD00BF1C060020F0050020F8B50E4D00200E4E2C680E4FB2
:203BA00006E02379022B06D024682B68A34209D02379032BF5D133782BB124682B6801204C
:203BC000A342F5D1F8BD384603F086FF0120EBE76C160020463F0020CC05002030B583B04C
:203BE000FFF74CFE0446FFF7D1FB08B903B030BD0A4801A9FFF7D2FB0128F7D1FEF7B4FDC2
:203C00006FF03F052D1A03E0FEF7AEFDC542EDD5638803F44063002BF6D0E7E70100010424
:203C20000B280BD00C2801D001207047042A08D139B10A4B00201B680B607047082A00D18B
:203C400009B902207047064A4B1E073112F8010903F8010F8B42F9D100207047A013002078
:203C6000D3130020082200B585B000210DEB020013F004FD42F2034302A801A9ADF8083060
:203C8000FFF78CFB20B19DF90A30803303D0002005B05DF804FB9DF80C0000F00C00A0F129
:203CA0000400B0FA80F0400905B05DF804FB00BF082210B584B00DEB0200002113F0DEFCBA
:203CC00002229DF80C3042F2034462F301038DF80C300CE0082200210DEB020013F0CEFC5C
:203CE00002A801A9ADF80840FFF758FB38B19DF80C0000F00303022BECD004B010BDFF2031
:203D000004B010BD2DE9F043DFF8C48083B081460F46D8F80060FEF727FD2E4D2D1A03E081
:203D2000FEF722FDC5421DD53479022CF8D0032C13D1D8F800100B7A062BDEB202DDB51FE7
:203D4000BD4211DD002215460B680A720A712846C8F8003003B0BDE8F0830025284603B020
:203D6000BDE8F0833479E2E72A460931484613F093FB0422D8F80010F31CCB5C164F5BB23E
:203D80003B70331DCB5C05363144144E03F03F030DEB0200337013F07FFB0198FFF708FE0B
:203DA0000F4B104A1B78106033B10021D8F80020136811721171CAE73978042049B289B21B
:203DC00005F06AF82046317805F066F8EDE700BF74160020FAFEFFFF47090020453F0020E3
:203DE000463F0020A013002030B583B0144801A9FFF7D4FA012802D0002003B030BDFEF7B9
:203E0000B3FC6FF03F040E4D241A03E0FEF7ACFCC44208D56B88022BF8D10A4C237933B196
:203E2000012003B030BD6B88022BE5D1F5E7FEF79BFC0123044A23711061184603B030BD0E
:203E4000A4130020841900208C19002030B583B0FEF78AFC274C241A06E0FFF703FF38B1FE
:203E6000FEF782FCC44203D5FFF790FA0028F4D101A92148FFF792FA6FF03F04FEF774FCE8
:203E80001E4D241A05E0022B08D1FEF76DFCC44214D5FFF77BFA6B880028F4D142F202427E
:203EA000934210D042F207429C1AB4FA84F4144D64092B7963B9204603B030BD42F20242E8
:203EC0006B889342EED10E4D01242B79002BF2D0FEF74AFC00220B4B2A711B690A4AC01A4A
:203EE000D2E908311B18204641F10001C2E9083103B030BD00FEFFFF01000104A4130020A5
:203F0000841900208C190020C00D002008B5FFF73DFA50B1064B5888A0F10200B0FA80F069
:203F20004009C0F10200C0B208BD022008BD00BFA413002010B5FFF7FDFD012802D00024FD
:203F4000204610BD0446FFF721FA18B1044B5B88022BF5D0FFF748FFC4B2204610BD00BF41
:203F6000A413002038B5FEF7FFFB244C241A06E0FFF778FE38B1FEF7F7FBC44203D5FFF7EA
:203F800005FA0028F4D1FFF701FA1D4C20B16388022B01D1FFF75AFF1A4DFFF749FB2B798C
:203FA000DBB9FFF7A5F90022174B62801979022908BF1A71154B1A79022A04BF00221A71D5
:203FC000134B1A79022A04BF00221A71114B1A79022A04BF00221A7138BDFEF7C5FB0022FD
:203FE0000D4B2A711B690D4AC01AD2E908311B1841F10001C2E90831D3E700BF00FEFFFF66
:20400000A4130020841900203C140020C814002054150020E01500208C190020C00D002050
:2040200008B5FFF765FD012801D0FFF79BFF012008BD00BF10B5FFF75BFD012808D0FFF732
:2040400025F9FFF7A3F928B1214B5B88022B01D1012010BD4FF0010C4FF0840E1D481E4BB0
:2040600044791E496CF3830401601860A0F806E0447148791A4A6CF383000A60A1F806E03A
:204080004871507959796CF383006CF383011360A2F806E0A3F806E050715971FFF70EF90B
:2040A000FFF766FB012801D0002010BDFFF77AFBFFF740FD0128F7D1FFF768F918B1044BC4
:2040C0005B88022BC4D0BDE81040FFF78DBE00BFA41300203C140020E0150020C8140020EF
:2040E00054150020F8B50025394E3A48FFF716F8FFF718FB8C222946304613F0BFFA8C2252
:204100002946354813F0BAFA8C2229463348344C13F0B4FA8C222946324813F0AFFA324F6F
:20412000324B8022294620463E601E607D6013F0A5FA42F601032E4E2360A623304642F242
:2041400002024FF2F001276101272377E36820F8022B1940274AA369C4E901551A4094F890
:204160003730C4E9085567F3030384F83730224BE5830B43E360214B04F118011343A36151
:204180001F4B02226361A56313F086F93A4604F11A01301D13F080F9FFF74CFFB84202D0DD
:2041A0002C462046F8BD174D04462B7953B11648FFF77AFBFFF77EFB0021144803F096FBE3
:2041C0002046F8BDFEF7D0FA114B2C711861EEE73C140020DC050020C814002054150020C8
:2041E000A4130020E01500206C1600207416002024140020007C008000011AB10702FF6FF0
:204200002C14002084190020C89B0100CC0500208C19002070B5FFF76BFC012835D0FFF7C1
:20422000B5F8A8B3224E7388022B31D1FEF79CFA204C241A06E0FFF715FD38B1FEF794FA4D
:20424000C44203D5FFF7A2F80028F4D1FFF79EF8D8B100257388022B26D1FFF729FDFF2867
:2042600022D000F00300441E18BF012475B1FFF73FFC01280AD0FFF775FE204670BDFFF7AF
:2042800037FC012801D0FFF76DFE0124204670BDFFF7D0FE01280446F1D1FFF777F8002852
:2042A000E5D02546024ED5E70124002DEED0DEE7A413002000FEFFFF10B5FFF719FC012831
:2042C0001AD0FFF763F8B8B10C4C6388022B13D1FFF75CF860B9FFF759F868B16388022B0B
:2042E0000AD1FFF7E5FCFF2806D0C0F3801010BDFFF7B8FC0028EED0002010BDA4130020AB
:20430000F0B589B00546FFF741F800284AD04E4B5B88022B46D10024FEF726FA6FF01F0686
:20432000361A07E0FFF79EFC012852D1FEF71CFAC64250D5FFF72AF80028F3D100261821CF
:2043400042F6014202A8FFF79FFA404BE8B28DF81700069304969DF81430012066F303035C
:204360008DF81430FFF75CFA02A801A9FFF716F8002836D10125364FFEF7F6F9FB78D3B913
:204380003B791BB9334B186101233B71FFF766FA74B1FFF7ADFB01280AD0FFF7E3FD28466E
:2043A00009B0F0BDFFF746FE01280446B4D00125284609B0F0BD0023FB70264B264AD968BC
:2043C0009369411A5B189361D36943F10003D361D6E70028B2D0002C2FD10225284609B097
:2043E000F0BD1B4FFEF7C0F93B795BB1194B1A4A1969136A411A5B181362536A3E7143F18E
:2044000000035362FB781BB90123124AFB70D060124D2A7800E06AB1BDF80A3003F44063FD
:20442000002BF8D0BDF80A50ADB2B5F5105518BF0125A1E7FEF7D2FCEBE7FFF759FB01287F
:20444000CBD0FFF78FFDC8E7A41300207A160020841900208C190020C00D0020463F0020F5
:204460007D2801D901207047FFF74ABF7D2901D90120704710B50C460A460146034813F092
:204480000BF82046BDE81040FFF73ABF7A1600200B2838B502D00124204638BD082A29D181
:2044A00041B3184A01F1080313F8010D8B4202F8010BF9D1FEF76AFF04460028ECD0124D08
:2044C0006B88022B1BD1FEF761FFB0B16B88022B13D1FFF7BBFC01280FD00324FEF756FFF0
:2044E00010B16B88022BD7D0FFF77EFC012818BF0324D1E70224204638BD0024EEE7002447
:20450000CAE700BFCC130020A413002030B50C4683B0072800F2C580DFE800F02C6E353FC0
:2045200042697904604D2977FEF730FF002830D06B88022B2DD1FEF729FF002800F0908057
:204540006B88022B40F08C80FFF780FC012818BF032400F08580FFF719F9012800F08A8046
:20456000FEF714FF00287DD06B88022B7AD1204603B030BD012900F08D8000297DD002248A
:20458000204603B030BD484D6986FEF7FFFE0028CED10024204603B030BD434D2986C3E7C5
:2045A00031F00703EBD1404D04F001032A8B3F49C4F3400043F0020302F4FE4243EA80033D
:2045C00013430A78C4F3800494422B830C70ABD1022205F11801364812F05EFF354801A915
:2045E000FEF7DCFE00280CBF03240024BFE731F00103C4D1CCB2BAE7A1F10B030F2BBED8BF
:20460000294DCCB2AB7BA342C3D0AC738CE701F115031A2BB3D86FF014030C25264A01E0A4
:2046200052F835309C422FDD013DF9D2FEF7AEFE044600289BD0042200210DEB020013F016
:204640001DF810221C4B694603EBC5039B8801A80024ADF80630ADF80420FEF79FFE86E7B4
:20466000002478E7FFF7C0FB012818BF0324204603B030BDFFF734F972E7FFF739FA01280B
:2046800087D0FFF76FFC72E70B4B0C4A03EBC5031360CBE7FFF7CEFC01283FF47AAF032416
:2046A00065E7012463E700BFA4130020463F00202614002024140020D89B01001C0600209C
:2046C000D1B170B50C4684B0182813D8DFE800F03EB0AB684D0D16A5736D39121212353100
:2046E0002C281224201C0DB56400002318460B6004B070BD0120FBE7022070475D4B00205D
:204700001B681B680B60F3E70A2300200B60EFE7202300200B60EBE7032300200B60E7E7A1
:20472000052300200B60E3E76FF0140300200B60DEE71A2300200B60DAE70B2300200B60F4
:20474000D6E74D4B00201B780B60D1E7FEF71EFE002800F08A80494B5888A0F10203B3FA44
:2047600083F35B0900202360C2E70023434A0B60137E03F001030B60127E520744BF43F0E6
:2047800002030B603E4B1B78002B44D00B68002043F004030B60ABE77D2300200B60A7E7CB
:2047A000364B00201B8E0B60A2E7364B00201B785BB20B609CE7FEF7E9FD00283FD02F4B00
:2047C0005B88022B3BD10026082200210DEB020012F054FF02229DF80C3042F2034562F337
:2047E00083038DF80C300AE0002102A812F046FF02A801A9ADF80850FEF7D0FD48B39DF8D3
:204800000C2002F00C02082AEED03EBB9DF90A30236080332BD000206AE7184B002093F902
:204820001C300B6064E7154B00205B8E0B605FE7124B00209B7B0B605AE7182392E7FFF773
:20484000F9FB01280646BFD06FF07F03032023604EE780238DF80A30002EF5D0FFF748F918
:204860000128D3D0FFF77EFBD0E703467AE703203EE700BF1C060020453F0020A4130020D8
:20488000463F00204709002008B500F077F880B208BD00BF00F004B938B54FF08055D5F8B6
:2048A000B83104205B699847D5F8B83104205B6B984701280446F7D1D5F8B83140F2014065
:2048C000DB699847034B044A9C62936A9B07FCD538BD00BF0020086000200840034B1B6836
:2048E000002B0CBF02200120704700BF30170020F8B5038804465BB3B3F5847F2DD1194B05
:204900001B788B4201D00120F8BD174D2B686BB14FF080530026154AD3F8CC3157685B689C
:204920000220984739462B6898472E604FF08053D3F8B83140F201409B6A984701210C4B61
:204940000C4A9962936A9B07FCD50B48FEF7ECFB4FF4847323800120F8BD002323800320CB
:20496000F8BD00BF48090020301700200080024000200860002008402006002070B52B4B58
:204980001B686BB12A4900230A4612F8014B002C3CD10133042BF8D125462046294670BD6A
:2049A0004FF08053D3F8B83104205B6B9847012837D0FFF771FF1F4A1F4B92681A4210D1C8
:2049C00001221E4BC3F8F02FD3F8F02F002AFBD110464FF4807105F0B9FD0122184BC3F81B
:2049E000A82205F051F80646124A9368DB07FCD54FF08053D3F8CC3102205B6855689847FE
:204A00000446002EC9D105F043F8C6E700200D4AC85402EBC30552F833406D6820462946F8
:204A200070BD094BDB6B9A07C5D4C2E73017002034170020008002400100008000900240E5
:204A400000005042580900200020084038B500244FF080510E4D0F4AC5F8A842D368D1F85B
:204A6000B01123F00103D3604B6931209847224620464FF4807105F069FD0121064BC5F8BA
:204A8000A812224619780548BDE8384002F0F2BF0000504200800240480900203406002037
:204AA00010B5074C2378802B00D010BD02F016FF0346002123700348BDE8104002F016BFF0
:204AC000480900203406002008B504F0DDFF003818BF012008BD00BF80F31088704700BF49
:204AE000827A044B03EBC2035B68181AB0FA80F040097047381700202DE9F043504A837A5A
:204B000085B002EBC303D3E84F7F17F0FF0706D0BFF35F8F0327384605B0BDE8F08301210A
:204B2000C3E8481FBFF35F8FB8F1000F40F085804FF080590446837A424E02EBC302506085
:204B4000D9F8B431C078DB6B9847A37A06EB03135868D9F8B8315B699847A37AD9F8B8213A
:204B600006EB0313526B5868904701280546F4D1D9F8B831DA69A37A06EB031398689047A9
:204B8000314B324A9D62936A9B07FCD503204FF08051A37A1B01F258536923F00F03536163
:204BA000A37A1B01F3581862D1F8C431D3F80090A37A1B01F05823894BB1227A637A002A12
:204BC00034D0002B14BF4FF003084FF0020808234FF080550193636842461D4900930023FE
:204BE000C847A37A94F800E0D5F8B4C1A27861781B01CDF800E0F058DCF844804FF0FF33D6
:204C0000C047A37A1B01F258536843F002035360A37AD5F8C4211B011269F05803A9904733
:204C20000028F5D1384605B0BDE8F083002B0CBF4FF003084FF00108C9E703276BE700BFC8
:204C4000381700205C9C01000020086000200840006CDC0270B5264D837A05EBC3025268AE
:204C6000904201D0042070BD4FF08051214A044602EB03139868D1F8B8311B6A9847012140
:204C80001D4B1E4A9962936A9B07FCD54FF08056D6F8B43160789B6B9847D6F8B4314FF45E
:204CA000005160789B699847D6F8B431A0789B6B9847D6F8B4314FF40051A0789B699847F6
:204CC000D6F8B43120789B6B9847D6F8B4314FF400519B69207898470023A27A05EBC202EF
:204CE0005360A27ABFF35F8F184605F8323070BD381700205C9C0100002008600020084003
:204D00002DE9F04F9846334D837A164605EBC3056A6885B0904203D0042005B0BDE8F08F26
:204D20004FF080592C4D044605EB03135868D9F8B8310F465B6B9847012849D1A37A27494E
:204D4000886F05EB0311C9681B01084240D0DDE90E210A44B242B8BF3246002A019235D0C9
:204D6000D8BF0DF10C0A24DD4FF0000B0DF10C0A5E45D4BF002117F80B10E8580391D9F803
:204D8000C4315B689847A37A51461B01E858D9F8C431DB6898470E9B019A5B45C4BF039B7F
:204DA00008F80B30A37A0BF1010B5A454FEA0313DED14FF0805601E0A37A1B01D6F8C42114
:204DC000E8585146136998470028F5D10020A4E70520A2E7381700205C9C0100002008408A
:204DE00070B50A23002682B00C46154618496A46CDE9006300F040FE70B1009812F0C6FA89
:204E000000281EDB40281FDD40231A4601932846104912F041FB04E02846019A0D4912F06C
:204E20003BFB0021204600F047FE01A90122204600F05CFE29462046019A00F0E1FE02B012
:204E400070BD32460196E2E702460190DFE700BF7C9C0100809C0100034A04481368013371
:204E6000136001F077BB00BF481700206C060020F8B56F23174F15463C680E46012C137024
:204E80000CDD04F1FF3C13463120134C944401E054F8040F03F8010F6345F9D12A2130469A
:204EA00000F00AFE0D4B30461B6A1968C90900F015FE294630463A6800F0A2FE3B68262B46
:204EC00000D0F8BD012306483B60BDE8F84005F063BB00BF68060020DC9C01006C060020F8
:204EE000B49C010030B5164CADB02146E08A01F023FE18B305462146452201A801F0C8FC98
:204F000004F1340012F028FC04F13401024601A800F076FE0022238EE16A01A800F03AFED4
:204F200005F1460101A800F0CDF903462846A5F8443001F01BFE0022024B1A702DB030BD40
:204F40004C170020493F0020024B1B7803B97047FFF7C8BF493F002038B50F4D04460F48C4
:204F600005F01AFB2B78012B03D9BDE8384001F027BC013320460A492B7001F02FFC1021B6
:204F8000084A094805F02EFB2B7803B938BDBDE83840FFF7A7BF00BF493F0020509D01002E
:204FA0004C170020609D0100801700204FF0FF3330B583B00C4601A90193154600F084FDD4
:204FC00001994B1E03332AD8322911D08621204600F05EFD164812F0BFFB154902462046DC
:204FE00000F00EFE3C21204600F078FD03B030BD204600F061FD0A23402128460D4A05F0F1
:20500000F1FA284612F0A8FB29460246204600F0F7FD3C21204600F061FD03B030BD0021BF
:20502000204600F049FD0A2340212846024AE6E79C9D0100889D0100849D010038B50D4CF7
:205040000D4D236828680133C0F10A00236012F099F9002823680ADD042B0ADD0A230022D6
:205060002B6022600548BDE8384001F073BA3A2BF4DC38BDB4060020DC060020B8060020B7
:205080000C2846D9B0F5867F94BF4FF0D00C4FF0E00C0C293BD9B1F5867F94BF0D230E23D2
:2050A00043EA0C03B0F5867F13701AD96FF4867C84444FEA1C2CA0F10D0382F801C00320E7
:2050C0004FF0020C9370B1F5867F16D96FF48673CB181B0A13540D39624491700CF103002E
:2050E00070470C280FD9A0F10D03B1F5867F4FF002004FF0010C5370E8D80C2902D90D392B
:2051000011540130704701204FF0000CDBE7CBB2C6E74FEA001C5FFA8CFCBAE72DE9F041CC
:205120001E0C13F07F484FEA0646A0EB01001C46154614BF0121002123F0FF07BEB10131DD
:205140002A460231FFF79CFFB8F1000F02D0230E2B54013096B1411C230C0A462B5417B146
:20516000230A4A1C6B54501CAC54BDE8F081002FE6D143B9BDE8F041FFF782BF57B9002C30
:20518000F3D00246EFE70131FFF77AFFB8F1000FDDD1F4E70146E3E72DE9F047002407467D
:2051A0001C6010460E469246984612F0D5FA3E443D18AE4227D981463C460AE014F8011C1F
:2051C000262908D0013404EB09018E4205F1010519D9A742F2D12B783D2BF3D121464A464A
:2051E000504612F0E7FA0028ECD109F101094C44361B32462621204612F0D2F800B1061BA9
:20520000C8F8004000E000263046BDE8F08700BF2DE9F04F1E46002483B00C9D82469146DF
:205220002746A446B0469DF8343005F1010B03E001345C45A44623D816F80CE006EB0C058C
:205240009E4509EB0702AAEB0100A5EB080503D0DDF830E0E645EBD129460193FFF710FF94
:205260000134384441462A4606EB04082F180134484412F011F95C455146A446019BDBD903
:20528000384603B0BDE8F08F08B5FFF7FDFA014B188008BD263F0020024B1888013080B291
:2052A00018807047263F0020F8B504460F4616461D46AC22002112F0E1F96771A6712581AF
:2052C000F8BD00BF012200232DE9F041016002710B7002680E4613780179044643EA8113B0
:2052E00013700268437911781B0103F030030B4313700268837A117803F00F030B431370A3
:205300000368827982B05A70038902681B0A937003680289DA708379002B00F06981026862
:20532000837A151D63B16FF0030100F10B03891A13F8012B05F8012BA07A6A189042F7D888
:20534000E37C9807C3F3400111D594F86A702A4639460120FFF794FE80463A4604F16B01CD
:20536000281812F099F801214744E37C3D441A0711D5D4E910782A46C1F103003946FFF7E7
:205380007FFE414680463A46281812F085F803214744E37C3D44DF0612D594F824702A4619
:2053A000C1F104003946FFF76BFE80463A4604F12501281812F070F804214744E37C3D44BE
:2053C000980606D5C1F1050305211B0105F8013BE37C5A0607D52A46636E0620FFF79EFE8B
:2053E0000621E37C0544DB0907D02A460720B4F85030FFF793FE07210544237DDF070BD502
:205400002F27A36C2A460093E36C08200197FFF7FFFE0821237D054418070BD52F27E36D6B
:205420002A460093236E0B200197FFF7F1FE0B21237D0544DA0607D52A46A38B0C20FFF79F
:205440006DFE0C21237D05445F0607D52A46236A0E20FFF763FE0E21237D0544DB090CD030
:205460002627D4F894302A460093D4F898300F200197FFF7CDFE0F210544637D980708D55B
:205480002A46B4F868301120FFF748FE1121637D0544DA060BD52627636D2A460093A36DA0
:2054A00014200197FFF7B4FE1421637D0544DB091CD0636F94F878201B01002A40F09C80C2
:2054C0000020B4F87A20120900F1010C520886461FFA8CF0F8D118B10EF00F0E43EA0E03A7
:2054E0002A461720FFF71AFE17210544A37D1F071DD5D4F8803094F884201B01002A7ED1FD
:205500000020B4F88620120900F1010C520886461FFA8CF0F8D118B10EF00F0E43EA0E035A
:205520002A461B20FFF7FAFD1B21A37D0544D80607D52A461C20D4F88C30FFF7EFFD1C2121
:205540000544E37D1A0711D5D4E90C782A46C1F123003946FFF794FD414680463A46281802
:2055600011F09AFF23214744E37D3D44DB0910D0D4E90E782A46C1F127003946FFF780FD9F
:20558000414680463A46281811F086FF272147443D44A37EDB0612D42368EB1A3E2B19DC4E
:2055A000B4F8A420F2B92846D4F8A81011F0EAFFB4F8A430A81B184402B0BDE8F0812A461D
:2055C000D4F890303C20FFF7A9FD23680544EB1A3E2BE5DD00200B4B0B4A20601A6002B0CC
:2055E000BDE8F081FF2305F8013BB4F8A420DAE7042002B0BDE8F08143F0080360E743F065
:2056000008037DE7E0060020049E0100032A40F2D0802DE9F84F05460E4691460021AC2201
:2056200012F02CF82E6096F800B04FEA9B1B85F804B03378BBF1010FC3F301136B713278A1
:2056400002F00F02AA727378AB7173885BBA2B8140F08580082A00F2B380371D06EB090A84
:20566000BB189A45C0F08680394605F10B0011F013FF0822002105F1130011F0FFFFAB7AB7
:205680001F44BA4588BF4FF0000840F2A580394611F8014B04F0F003F02B00F07D818A4530
:2056A0004FEA141304F00F0464D90D2B5DD00E2B67D00D2C61D00E2C6ED00F19BA4559D33C
:2056C0009844B8F13C0F55D805EBD802D07C08F007030BFA03F30343D37408F1FF333B2B9C
:2056E00073D8DFE813F07B0072008600890094009700A500B50072007200BC00C30072003F
:20570000D200DF007200E70072007200F70072007200FE0072007200720039011D017200A2
:2057200072007200720072007200680072007200720068007200720072007200720072005D
:20574000720072007200720072007200720072007200720072007200720072002B01802041
:20576000BC4BBD4A1A60BDE8F88F7B78B91C0D338A459ED88020BDE8F88F11F8014B0D34C6
:205780009BE77B781A02BB1C9A45F3D9BB78F91C03F20D131344EBE70A4612F8010B924533
:2057A0004FEA0020E6D94C78023104F20D14044483E780207047A74BA84AA5201A60D2E7DE
:2057C000A44BA74A80201A60CDE718F0010F40F04981BA453FF65BAF0020C4E7082C224664
:2057E00028BF082205F16B0085F86A2011F054FEEFE7C5E91041ECE7082C224628BF082288
:2058000005F1250085F8242011F046FEE1E785F89CB0DEE723464CB10023013C0C440139C1
:2058200011F8012FA14242EA0323F9D16B66D0E7234654B10023013C0C44013911F8012F17
:205840008C4242EA0323F9D19BB2A5F85030C0E7AA6C002A40F0B380C5E91241B9E7EA6DB2
:20586000002A40F0BB80C5E91741B2E7234654B10023013C0C44013911F8012F8C4242EA69
:205880000323F9D19BB2AB83A3E74CB1621E00240A44013911F8013F8A4243EA0424F9D1B6
:2058A0002C6296E7D5F89420002A40F0B580C5E925418EE7234654B10023013C0C440139EC
:2058C00011F8012F8C4242EA0323F9D19BB2A5F868307EE76A6D002A40F08F80C5E915417A
:2058E00077E7002C00F0AD800023013C0C44013911F8012F8C4242EA0323F9D1102203F0CF
:20590000070123F00F048A408C4092B2C3F3C0011B0985F87810A5F87A20EC676B6758E744
:205920004CB1621E00240A44013911F8013F8A4243EA0424F9D1C5F88C404AE74CB1621ED3
:2059400000240A44013911F8013F8A4243EA0424F9D1C5F890403CE7002C76D00023013CE5
:205960000C44013911F8012F8C4242EA0323F9D1102203F0070123F00F048A408C4092B24D
:20598000C3F3C0011B0985F88410A5F88620C5F88840C5F880301CE78E1BA9EB06091FFABE
:2059A00089F9B9F1400F28BF4FF040090023C5F8A810A5F8A490184601F80930D3E62F20FC
:2059C000EB6C9854A86CEB6C0130A8642246184411F0D8FDAB6C2344AB64FAE62F202B6EED
:2059E0009854E86D2B6E0130E8652246184411F0C9FDEB6D2344EB65EBE62620AB6D98549A
:205A0000686DAB6D013068652246184411F0BAFD6B6D23446B65DCE62620D5F89830985487
:205A2000D5F89400D5F898300130C5F894002246184411F0A7FDD5F894302344C5F894300C
:205A4000C7E623461022214663E723461022214699E700BFE0060020349E0100749E010020
:205A60004C9E0100024B034A82201A607BE600BFE00600209C9E01008446007D1346C011B3
:205A800004D00A46DCE92510FFF786BB704700BF0346FF299ABF012099710020704700BFB0
:205AA000082A10B528BF082204460B30A27211F0F3FCA07A10BD00BF03461A7D012042F07C
:205AC000100299831A7570470346427DC2F34000920744BFB3F868300B60704703461A7D74
:205AE000012042F0400219621A757047082A10B528BF08220446253084F8242011F0CCFC20
:205B0000E37C94F8240043F01003E37410BD00BF027D0346C2F3C000120702D51A6E0A602E
:205B2000D86D70470B7810B52F2B044603D111F8013F2F2BFBD00846216611F00DFE237DBA
:205B4000E06543F00803237510BD00BF0346DA7C012042F040025966DA7470478446407D1F
:205B6000C01115D000B519B1DCF874E0C1F800E012B19CF87810117013B1BCF87A201A8023
:205B8000019B1BB1DCF87C30019A13605DF804FB704700BF8446A3F11000B0F5FE6F02D8EB
:205BA000B1F5801F01D300207047003A18BF01229CF81500CCF8741060F07F01ACF87A30B2
:205BC00001208CF815108CF8782070478446A3F11000B0F5FE6F02D8B1F5801F01D3002095
:205BE00070479CF81600CCF8801040F008018CF884200120ACF886308CF81610704700BFF4
:205C0000402A034628BF4022C3F8A8101046A3F8A420704710B5846882B01CB194F9083034
:205C2000002B01DB02B010BD236A002BFAD01A68002AF7D00749097831B11B6A23B101904C
:205C40009847236A01981A68002302B0BDE8104000F09CBE4B3F00202DE9F047064682B034
:205C600012480F4691469846DDF828A002F042F870B10446656845B143464A4639463046BB
:205C8000CDF800A0A847054638B92468002CF1D10025284602B0BDE8F087B379012BF8D178
:205CA0003A463146002000F059FCF2E7D41700202DE9F04FAA4C05468BB020468846FFF7A9
:205CC000A5FCA84E0346C4F8A050307010BBA2792089013A032A5FD9636823F07F4323F0B6
:205CE000FF03002B4CD06379032B00F01A81208900F0C4FF074600284AD0D0E90F9700F08C
:205D0000A7FFB9F1000F00F08D8038469449C84733784BB30027C22B2AD0DFF84C923846D3
:205D200000F096FF3278C32A65D0BF2A85BFA02202210221327023898948FFF7B5FAD9F848
:205D40000040204611F008FD214602468448FFF757FF41468248FFF7B5FA0246414628469D
:205D600092B201F0FBF8337818460BB0BDE8F08F384600F06DFF337818460BB0BDE8F08F51
:205D8000C3232089337000F079FF07460028B4D13378002BE8D0BEE72946039300F0CCFE7D
:205DA0000746002842D0039BCDE9063308934023ADF81630637963BB4522022123896B4803
:205DC000FFF772FAA27A002A40F0A68007AB0093002263480DF1160306A9FFF7BFFE70B911
:205DE000089B002B2ADA8223DFF87C913370604BC9F8003093E70022032132709BE7BDF870
:205E00001630402B28BF4023ADF81630079B0893E7E7FFF741FA4522034601215348FFF7FD
:205E200043FACFE73378002B9ED073E7A323DFF8389133704F4BC9F8003070E708AABDF87F
:205E4000163007F1840B009248495A4644480393FFF702FF002846D1099009A94048FFF791
:205E600057FE8246444801F045FF814670B95DE007DD99F80830DB0603D509990B5C2F2B4E
:205E80000BD0D9F80090B9F1000F4FD0D9F8040011F062FC8245EBD109990246D9F8040078
:205EA00011F088FC0028ECD1A379012B00F0B980022B00F0C180032B00F0E980042B40F0C3
:205EC000B680D9F81CA0BAF1000F00F0B08008AB264900935A46039B2148D04799F80830E9
:205EE000590600F1DB803378002B7FF414AFA37D1A0753D5DFF8749099F90630002B4DDB8C
:205F000099F816301B0749D4A123DFF85C9033701A4BC9F8003002E719491448FFF7C0FD91
:205F200054E70146284600F0E7F9E0E684210F48FFF7AEFD84210D48FFF7AAFD3378002BD1
:205F40007FF4E9AE094807F14601FFF7BBF980B2A7F84400B0B9C123DFF80C903370DEE6C1
:205F6000DC1700204A3F0020E006002088180020B89E0100D89E0100D8170020C89E01005B
:205F8000E71700203378002B7FF4C5AE384600F0EDFD337818460BB0BDE8F08F637D089A65
:205FA000D91115D1002ACDD0DFF8FC90013218BF012240234846FFF7EDFDB9F8A4204846E6
:205FC000402A28BF4022D9F8A810FFF719FEB5E7079B934216D001320699BDF8163032D0B0
:205FE0000122DFF8C4903048FFF7D4FDBDF81620B9F8A4309342A1D9D9F8A8102A48FFF764
:20600000FFFD9BE7DFF8A090B9F8A420934223D3822348460F22254989F80630FFF7F0FD4F
:206020008CE7D9F810A0BAF1000F7FF450AF85211D48FFF72DFD7DE7D9F814A0BAF1000F72
:206040007FF445AFF3E7DFF86090B9F8A4209A4294BF00220122C6E7D21ABDF8163006991C
:206060009A4294BF002201224846FFF793FD0799B9F8A430BDF816205B1A9A4228BF1A46F0
:20608000D9F8A83048461944FFF7BAFD56E7D9F818A0BAF1000F7FF41AAFC8E74846024A7A
:2060A000034900F05BFA1EE788180020B89E0100DC1700200B4610B504460E486360214640
:2060C00001F01AFE94F90830002B00DB10BD206A0028FBD0036A002BF8D00268002AF5D0E9
:2060E00005490023C0E903140830BDE8104000F04DBC00BFD8170020155C000008B50B4BF7
:206100001A7802B108BD012209481A7001F0EEFD084801F0EBFD08490848FFF7CBFF00F021
:206120000FFFBDE80840FFF7AFB800BF4B3F0020D4170020D8170020E89E0100F0060020E7
:20614000014801F0D7BD00BFD817002001F070BE99B138B58B680C4610480BB18D8935B9F0
:20616000A06011F0F9FA0346A381012038BD11F0F3FA854203D0002038BD00207047A28909
:206180000649A06811F054F90028F4D10448206111F0E2FA0346A382012038BDFC9E0100A4
:2061A000049F0100014800F047BF00BF109F01002DE9F0410546134801F09CFD0446E0B13B
:2061C0000026DFF844800F4F01E0246894B1294604F1180000F074FE0028F6D02146404635
:2061E00001F058FE2146384601F0CEFD24680136002CECD13046BDE8F08106463046BDE818
:20620000F08100BF34190020E40600202DE9F04705461A480F46164601F06CFD044640B395
:206220004FF00008DFF858A0DFF85090294604F1180000F045FE18B194F82C30B34205D067
:206240002468002CF2D14046BDE8F0873246394604F12D0011F0ECF80028F1D1214650463C
:2062600001F018FE2146484608F1010801F08CFDE6E780464046BDE8F08700BF3419002045
:20628000E40600202DE9F047064619480F4601F031FD044640B34FF00008DFF858A0DFF85C
:2062A000509004F11800251D1EB1314600F008FEA0B1BD4208D0284611F04EFA39460246CD
:2062C000284611F0B5F848B92146504601F0E2FD2146484601F058FD08F101082468002CDF
:2062E000DFD14046BDE8F08780464046BDE8F08734190020E40600202DE9F8430546144875
:206300000E4601F0F7FC0446E8B10027DFF84490DFF83C80294604F1180000F0D1FD10B102
:20632000E38EB34205D02468002CF3D13846BDE8F8832146484601F0ADFD21464046013753
:2063400001F022FDEFE707463846BDE8F88300BF34190020E40600202DE9F04F06460C4643
:20636000E1B0002800F0A780406811F0F5F9054605AF13223846716811F05AFA122D40F364
:20638000908000240DF1280845220121404623460DF1D40AFC74FEF787FF23460122214669
:2063A0005046FEF781FF39465046FFF7BBFB384611F0D2F90546337AC3F3001B614801F064
:2063C00099FC0446002869D0B94602965F4608E004DD1FB163191B792F2B08D02468002CAE
:2063E0005CD0261D304611F0B7F9A842F0D131462A46484611F0DEF983460028EED1FEF76A
:206400004BFF04F1180100F097FB06460028E5D0A26B4D4B4D4901FB02324D4B4146B3EB51
:20642000B20F4FF0000228BF88F805B083880492E386A8F8083004AB00F18402009350460D
:2064400040230392FFF708FC68B9029B002B61D004A9DDF808C00091402341465046039A38
:20646000DCF810C0E04798F90630002B47DA94F82C20404604F12D01FFF712FB049A002AF2
:206480004CD106F146014046FEF71CFFA6F84400304600F06BFB2468002CA2D161B0BDE87C
:2064A000F08F002C3FF46DAF2146C5F11302781911F0BEF965E70029F0D005AF13223846CB
:2064C0000DF1280811F0B4F90DF1D40A33464522012140468DF82760FEF7E6FE33460122FB
:2064E00031465046FEF7E0FE39465046FFF71AFB384611F031F94FF0010B05465EE7A16B0C
:2065000040464B1CA363FFF721FBA36B23F07F43A363ACE7802388F80630A8E7013218BF08
:206520000122002140234046FFF734FBB8F8A4204046402A28BF4022D8F8A810FFF760FB83
:206540009FE700BF3419002098999919CDCCCCCCCCCCCC0C0021FFF7FFBE00BF2DE9F84F15
:206560008B79012B01D0BDE8F88F92F906301546002BF8DBCB7C0C465B06F4D5D1F8A07038
:20658000002FF0D04B6E43B1012BECD13846BDE8F84F8A7A0B31FFF739BED1F860B091F87D
:2065A0000AA038465946D4F85C80FFF76BFE1F4801F054FC064678B3B8F1120FC146C4BF9A
:2065C0004FF01308C14642464FF0000859460430B14410F061FF394606F1180089F80480D0
:2065E00000F05AFC524604F10B0186F82CA006F12D0010F051FF31460D48A6F8368001F0ED
:206600007BFBB16B28464B1CB363FFF79FFAB36B23F07F43B363A6E7A323AB712846BDE8E3
:20662000F84F10220349FFF7EBBA00BFE406002034190020149F01002DE9F04F83B09246B0
:206640009946DDF830800191FFF77AFD002800F0AB80002506462C46D8F80030DFF858B1D1
:20666000A34208D84D4510D24FF03C030AF80530D8F800300135621C934206D84D4504D25D
:206680004FF02F030AF805300135706811F064F80234D8F800202718974239D801D14D4534
:2066A0004AD3F0687C1CA0B1037893B1D8F80030A34206D84D4504D23B230AF80530F068A5
:2066C000013511F049F80237D8F800203C18944237D84D4504D9D8F80030621B9A4240D800
:2066E0003046FFF733FD064600284DD0D8F80030002CB5D0A34207D8A94505D92C230AF8DB
:206700000530D8F8003001350134A342B3D8A9E77368121B09F10101002AA8BF9B18491B2D
:206720000AEB05005A4603F05DFF05444D452BD2D8F800309F42B4D33E230AF80530013562
:20674000AFE7F368D21B09F10101002AA8BF9B18491B0AEB05005A4603F044FF05444D450C
:20676000BED9019C51462A462046FFF749FA28212046FFF7A1F9BEB1D8F800304B44C8F842
:20678000003003B0BDE8F08F002DEAD1002CF2D0019C82212046FFF77BF90F222046074925
:2067A000FFF72EFA002EE7D14FF0FF33C8F8003003B0BDE8F08F00BF289F0100B89E0100BF
:2067C000A322034B034904481A700860704700BF4A3F0020E0060020349F01002DE9F041DC
:2067E0000446ACB000890D4600F048FA002847D062790646B2B9D4F8A0709FB10221238919
:2068000001A8FEF751FD00F095FB804600F092FB014601A8FEF756FD02464146384692B200
:2068200000F09CFB06F12601284600F035FB6379003B18BF01232B75FEF72EFD0346EB829D
:20684000A27A04F10B0105F1190010F025FEA37A2B76D4F880306B62B4F886302B85636FFE
:20686000EB62B4F87A303BB94023C2222B86074B1A702CB0BDE8F081402B28BF4023F4E72B
:20688000A022024B1A702CB0BDE8F0814A3F002070B50C46CB8A097D0546FEF705FD227E90
:2068A00012B9238D43B970BD284604F11901FFF7F7F8238D002BF6D02846616A0022BDE831
:2068C0007040FFF783B900BF2DE9F041224B80461A7882B04AB3214801F00CFA41460546AA
:2068E0001E4801F051FA1D4801F004FA58B3D8E90476002103E0046801463CB320460469E3
:206900004369A74276EB030CF5D24246134801F05DFA124801F0EEF9854211D0104B9B6848
